{
  "contractName": "FactoryParts",
  "abi": [
    {
      "inputs": [],
      "payable": false,
      "stateMutability": "nonpayable",
      "type": "constructor"
    },
    {
      "anonymous": false,
      "inputs": [
        {
          "indexed": false,
          "name": "id",
          "type": "string"
        },
        {
          "indexed": false,
          "name": "owner",
          "type": "address"
        }
      ],
      "name": "MarkedAsRecalled",
      "type": "event"
    },
    {
      "constant": false,
      "inputs": [
        {
          "name": "_id",
          "type": "string"
        },
        {
          "name": "_name",
          "type": "string"
        },
        {
          "name": "_batch",
          "type": "int256"
        },
        {
          "name": "_partId",
          "type": "string"
        },
        {
          "name": "_owner",
          "type": "address"
        },
        {
          "name": "_previousIds",
          "type": "string[]"
        }
      ],
      "name": "storePart",
      "outputs": [
        {
          "name": "success",
          "type": "bool"
        }
      ],
      "payable": false,
      "stateMutability": "nonpayable",
      "type": "function"
    },
    {
      "constant": false,
      "inputs": [
        {
          "name": "_id",
          "type": "string"
        }
      ],
      "name": "markAsRecalled",
      "outputs": [
        {
          "name": "success",
          "type": "bool"
        }
      ],
      "payable": false,
      "stateMutability": "nonpayable",
      "type": "function"
    },
    {
      "constant": true,
      "inputs": [
        {
          "name": "_id",
          "type": "string"
        }
      ],
      "name": "getPart",
      "outputs": [
        {
          "name": "",
          "type": "string"
        },
        {
          "name": "",
          "type": "int256"
        },
        {
          "name": "",
          "type": "string"
        },
        {
          "name": "",
          "type": "address"
        },
        {
          "name": "",
          "type": "bool"
        },
        {
          "name": "",
          "type": "string[]"
        }
      ],
      "payable": false,
      "stateMutability": "view",
      "type": "function"
    }
  ],
  "bytecode": "0x608060405234801561001057600080fd5b506114c8806100206000396000f3fe608060405260043610610057576000357c0100000000000000000000000000000000000000000000000000000000900463ffffffff16806367ccd3a41461005c578063ab9f2cfe14610099578063c02f63f8146100db575b600080fd5b34801561006857600080fd5b50610083600480360361007e919081019061103e565b610118565b604051610090919061122e565b60405180910390f35b3480156100a557600080fd5b506100c060048036036100bb9190810190610ffd565b6105f7565b6040516100d296959493929190611279565b60405180910390f35b3480156100e757600080fd5b5061010260048036036100fd9190810190610ffd565b610968565b60405161010f919061122e565b60405180910390f35b6000610122610ceb565b6000886040518082805190602001908083835b60208310151561015a5780518252602082019150602081019050602083039250610135565b6001836020036101000a038019825116818451168082178552505050505050905001915050908152602001604051809103902060c06040519081016040529081600082018054600181600116156101000203166002900480601f0160208091040260200160405190810160405280929190818152602001828054600181600116156101000203166002900480156102325780601f1061020757610100808354040283529160200191610232565b820191906000526020600020905b81548152906001019060200180831161021557829003601f168201915b5050505050815260200160018201548152602001600282018054600181600116156101000203166002900480601f0160208091040260200160405190810160405280929190818152602001828054600181600116156101000203166002900480156102de5780601f106102b3576101008083540402835291602001916102de565b820191906000526020600020905b8154815290600101906020018083116102c157829003601f168201915b505050505081526020016003820160009054906101000a900473ffffffffffffffffffffffffffffffffffffffff1673ffffffffffffffffffffffffffffffffffffffff1673ffffffffffffffffffffffffffffffffffffffff1681526020016003820160149054906101000a900460ff1615151515815260200160048201805480602002602001604051908101604052809291908181526020016000905b82821015610439578382906000526020600020018054600181600116156101000203166002900480601f0160208091040260200160405190810160405280929190818152602001828054600181600116156101000203166002900480156104255780601f106103fa57610100808354040283529160200191610425565b820191906000526020600020905b81548152906001019060200180831161040857829003601f168201915b50505050508152602001906001019061037d565b505050508152505090508681600001819052508581602001818152505084816040018190525083816060019073ffffffffffffffffffffffffffffffffffffffff16908173ffffffffffffffffffffffffffffffffffffffff1681525050828160a001819052506000816080019015159081151581525050806000896040518082805190602001908083835b6020831015156104ea57805182526020820191506020810190506020830392506104c5565b6001836020036101000a03801982511681845116808217855250505050505090500191505090815260200160405180910390206000820151816000019080519060200190610539929190610d3a565b50602082015181600101556040820151816002019080519060200190610560929190610d3a565b5060608201518160030160006101000a81548173ffffffffffffffffffffffffffffffffffffffff021916908373ffffffffffffffffffffffffffffffffffffffff16021790555060808201518160030160146101000a81548160ff02191690831515021790555060a08201518160040190805190602001906105e4929190610dba565b5090505060019150509695505050505050565b606060006060600080606061060a610ceb565b6000886040518082805190602001908083835b602083101515610642578051825260208201915060208101905060208303925061061d565b6001836020036101000a038019825116818451168082178552505050505050905001915050908152602001604051809103902060c06040519081016040529081600082018054600181600116156101000203166002900480601f01602080910402602001604051908101604052809291908181526020018280546001816001161561010002031660029004801561071a5780601f106106ef5761010080835404028352916020019161071a565b820191906000526020600020905b8154815290600101906020018083116106fd57829003601f168201915b5050505050815260200160018201548152602001600282018054600181600116156101000203166002900480601f0160208091040260200160405190810160405280929190818152602001828054600181600116156101000203166002900480156107c65780601f1061079b576101008083540402835291602001916107c6565b820191906000526020600020905b8154815290600101906020018083116107a957829003601f168201915b505050505081526020016003820160009054906101000a900473ffffffffffffffffffffffffffffffffffffffff1673ffffffffffffffffffffffffffffffffffffffff1673ffffffffffffffffffffffffffffffffffffffff1681526020016003820160149054906101000a900460ff1615151515815260200160048201805480602002602001604051908101604052809291908181526020016000905b82821015610921578382906000526020600020018054600181600116156101000203166002900480601f01602080910402602001604051908101604052809291908181526020018280546001816001161561010002031660029004801561090d5780601f106108e25761010080835404028352916020019161090d565b820191906000526020600020905b8154815290600101906020018083116108f057829003601f168201915b505050505081526020019060010190610865565b50505050815250509050806000015181602001518260400151836060015184608001518560a001518595508393508090509650965096509650965096505091939550919395565b6000610972610ceb565b6000836040518082805190602001908083835b6020831015156109aa5780518252602082019150602081019050602083039250610985565b6001836020036101000a038019825116818451168082178552505050505050905001915050908152602001604051809103902060c06040519081016040529081600082018054600181600116156101000203166002900480601f016020809104026020016040519081016040528092919081815260200182805460018160011615610100020316600290048015610a825780601f10610a5757610100808354040283529160200191610a82565b820191906000526020600020905b815481529060010190602001808311610a6557829003601f168201915b5050505050815260200160018201548152602001600282018054600181600116156101000203166002900480601f016020809104026020016040519081016040528092919081815260200182805460018160011615610100020316600290048015610b2e5780601f10610b0357610100808354040283529160200191610b2e565b820191906000526020600020905b815481529060010190602001808311610b1157829003601f168201915b505050505081526020016003820160009054906101000a900473ffffffffffffffffffffffffffffffffffffffff1673ffffffffffffffffffffffffffffffffffffffff1673ffffffffffffffffffffffffffffffffffffffff1681526020016003820160149054906101000a900460ff1615151515815260200160048201805480602002602001604051908101604052809291908181526020016000905b82821015610c89578382906000526020600020018054600181600116156101000203166002900480601f016020809104026020016040519081016040528092919081815260200182805460018160011615610100020316600290048015610c755780601f10610c4a57610100808354040283529160200191610c75565b820191906000526020600020905b815481529060010190602001808311610c5857829003601f168201915b505050505081526020019060010190610bcd565b5050505081525050905060018160800190151590811515815250507f335bde9076cb678512bc2e7a710c09fb60e557abcdf1b1b8e761c2ef5729a46c838260600151604051610cd9929190611249565b60405180910390a16001915050919050565b60c060405190810160405280606081526020016000815260200160608152602001600073ffffffffffffffffffffffffffffffffffffffff168152602001600015158152602001606081525090565b828054600181600116156101000203166002900490600052602060002090601f016020900481019282601f10610d7b57805160ff1916838001178555610da9565b82800160010185558215610da9579182015b82811115610da8578251825591602001919060010190610d8d565b5b509050610db69190610e1a565b5090565b828054828255906000526020600020908101928215610e09579160200282015b82811115610e08578251829080519060200190610df8929190610d3a565b5091602001919060010190610dda565b5b509050610e169190610e3f565b5090565b610e3c91905b80821115610e38576000816000905550600101610e20565b5090565b90565b610e6891905b80821115610e645760008181610e5b9190610e6b565b50600101610e45565b5090565b90565b50805460018160011615610100020316600290046000825580601f10610e915750610eb0565b601f016020900490600052602060002090810190610eaf9190610e1a565b5b50565b6000610ebf823561141f565b905092915050565b600082601f8301121515610eda57600080fd5b8135610eed610ee88261131c565b6112ef565b9150818183526020840193506020810190508360005b83811015610f335781358601610f198882610f51565b845260208401935060208301925050600181019050610f03565b5050505092915050565b6000610f498235611431565b905092915050565b600082601f8301121515610f6457600080fd5b8135610f77610f7282611344565b6112ef565b91508082526020830160208301858383011115610f9357600080fd5b610f9e83828461143b565b50505092915050565b600082601f8301121515610fba57600080fd5b8135610fcd610fc882611370565b6112ef565b91508082526020830160208301858383011115610fe957600080fd5b610ff483828461143b565b50505092915050565b60006020828403121561100f57600080fd5b600082013567ffffffffffffffff81111561102957600080fd5b61103584828501610fa7565b91505092915050565b60008060008060008060c0878903121561105757600080fd5b600087013567ffffffffffffffff81111561107157600080fd5b61107d89828a01610fa7565b965050602087013567ffffffffffffffff81111561109a57600080fd5b6110a689828a01610fa7565b95505060406110b789828a01610f3d565b945050606087013567ffffffffffffffff8111156110d457600080fd5b6110e089828a01610fa7565b93505060806110f189828a01610eb3565b92505060a087013567ffffffffffffffff81111561110e57600080fd5b61111a89828a01610ec7565b9150509295509295509295565b611130816113d7565b82525050565b6000611141826113a9565b8084526020840193508360208202850161115a8561139c565b60005b848110156111935783830388526111758383516111f8565b9250611180826113ca565b915060208801975060018101905061115d565b508196508694505050505092915050565b6111ad816113e9565b82525050565b6111bc816113f5565b82525050565b60006111cd826113bf565b8084526111e181602086016020860161144a565b6111ea8161147d565b602085010191505092915050565b6000611203826113b4565b80845261121781602086016020860161144a565b6112208161147d565b602085010191505092915050565b600060208201905061124360008301846111a4565b92915050565b6000604082019050818103600083015261126381856111c2565b90506112726020830184611127565b9392505050565b600060c082019050818103600083015261129381896111c2565b90506112a260208301886111b3565b81810360408301526112b481876111c2565b90506112c36060830186611127565b6112d060808301856111a4565b81810360a08301526112e28184611136565b9050979650505050505050565b6000604051905081810181811067ffffffffffffffff8211171561131257600080fd5b8060405250919050565b600067ffffffffffffffff82111561133357600080fd5b602082029050602081019050919050565b600067ffffffffffffffff82111561135b57600080fd5b601f19601f8301169050602081019050919050565b600067ffffffffffffffff82111561138757600080fd5b601f19601f8301169050602081019050919050565b6000602082019050919050565b600081519050919050565b600081519050919050565b600081519050919050565b6000602082019050919050565b60006113e2826113ff565b9050919050565b60008115159050919050565b6000819050919050565b600073ffffffffffffffffffffffffffffffffffffffff82169050919050565b600061142a826113ff565b9050919050565b6000819050919050565b82818337600083830152505050565b60005b8381101561146857808201518184015260208101905061144d565b83811115611477576000848401525b50505050565b6000601f19601f830116905091905056fea265627a7a7230582015d8d0798a63240219fb83734f8f4a615c128b47e894a07aa9c00fe0b86b36f36c6578706572696d656e74616cf50037",
  "source": "pragma solidity >=0.4.22 <0.6.0;\npragma experimental ABIEncoderV2; // cannot return variable length objects or structs without this, remove when no longer experimental\n\ncontract FactoryParts {\n    struct PartElement {\n        string name;\n        int batch;\n        string partId;\n        address owner;\n        bool recalled;\n        string[] previousIds;\n    }\n    mapping (string => PartElement) private partsList;\n\n    event MarkedAsRecalled(\n        string id,\n        address owner\n    );\n\n    constructor() public {\n\n    }\n\n    function storePart(string memory _id, string memory _name, int _batch, string memory _partId, address _owner, string[] memory _previousIds) \n                            public returns(bool success) {      \n        PartElement memory part = partsList[_id];\n\n        part.name = _name;\n        part.batch = _batch;\n        part.partId = _partId;\n        part.owner = _owner;\n        part.previousIds = _previousIds;\n        part.recalled = false;\n\n        partsList[_id] = part;\n        return true;\n    }\n\n    function markAsRecalled(string memory _id) public returns(bool success) {\n        PartElement memory part = partsList[_id];\n        part.recalled = true;\n        emit MarkedAsRecalled(_id, part.owner);\n\n        return true;\n    }\n\n    function getPart(string memory _id) public view returns (string memory, int, string memory, address, bool, string[] memory) {\n        PartElement memory part = partsList[_id];\n        return (part.name, part.batch, part.partId, part.owner, part.recalled, part.previousIds);\n    }\n}",
  "sourcePath": "/home/test/eth-meff/smartcontracts/contracts/FactoryParts.sol",
  "compiler": {
    "name": "solc",
    "version": "0.5.0+commit.1d4f565a.Emscripten.clang"
  },
  "schemaVersion": "3.0.2",
  "updatedAt": "2019-02-16T02:44:29.997Z",
  "devdoc": {
    "methods": {}
  },
  "userdoc": {
    "methods": {}
  }
}